{
  "contractName": "PhotoCertification",
  "abi": [
    {
      "inputs": [],
      "stateMutability": "nonpayable",
      "type": "constructor"
    },
    {
      "anonymous": false,
      "inputs": [
        {
          "indexed": true,
          "internalType": "uint256",
          "name": "id",
          "type": "uint256"
        },
        {
          "indexed": true,
          "internalType": "address",
          "name": "author",
          "type": "address"
        },
        {
          "indexed": false,
          "internalType": "string",
          "name": "title",
          "type": "string"
        },
        {
          "indexed": false,
          "internalType": "string",
          "name": "hash",
          "type": "string"
        },
        {
          "indexed": false,
          "internalType": "uint256",
          "name": "timestamp",
          "type": "uint256"
        }
      ],
      "name": "Certified",
      "type": "event"
    },
    {
      "anonymous": false,
      "inputs": [
        {
          "indexed": true,
          "internalType": "uint256",
          "name": "id",
          "type": "uint256"
        },
        {
          "indexed": true,
          "internalType": "uint256",
          "name": "certId",
          "type": "uint256"
        },
        {
          "indexed": true,
          "internalType": "address",
          "name": "buyer",
          "type": "address"
        },
        {
          "indexed": false,
          "internalType": "address",
          "name": "seller",
          "type": "address"
        },
        {
          "indexed": false,
          "internalType": "uint256",
          "name": "price",
          "type": "uint256"
        },
        {
          "indexed": false,
          "internalType": "uint256",
          "name": "timestamp",
          "type": "uint256"
        }
      ],
      "name": "Purchased",
      "type": "event"
    },
    {
      "anonymous": false,
      "inputs": [
        {
          "indexed": true,
          "internalType": "uint256",
          "name": "id",
          "type": "uint256"
        },
        {
          "indexed": false,
          "internalType": "string",
          "name": "account",
          "type": "string"
        },
        {
          "indexed": false,
          "internalType": "string",
          "name": "nickname",
          "type": "string"
        },
        {
          "indexed": true,
          "internalType": "address",
          "name": "walletAddress",
          "type": "address"
        },
        {
          "indexed": false,
          "internalType": "uint256",
          "name": "timestamp",
          "type": "uint256"
        }
      ],
      "name": "Registered",
      "type": "event"
    },
    {
      "inputs": [
        {
          "internalType": "string",
          "name": "",
          "type": "string"
        }
      ],
      "name": "accountToAddress",
      "outputs": [
        {
          "internalType": "address",
          "name": "",
          "type": "address"
        }
      ],
      "stateMutability": "view",
      "type": "function"
    },
    {
      "inputs": [],
      "name": "admin",
      "outputs": [
        {
          "internalType": "address",
          "name": "",
          "type": "address"
        }
      ],
      "stateMutability": "view",
      "type": "function"
    },
    {
      "inputs": [
        {
          "internalType": "address",
          "name": "",
          "type": "address"
        },
        {
          "internalType": "uint256",
          "name": "",
          "type": "uint256"
        }
      ],
      "name": "authorCertifications",
      "outputs": [
        {
          "internalType": "uint256",
          "name": "",
          "type": "uint256"
        }
      ],
      "stateMutability": "view",
      "type": "function"
    },
    {
      "inputs": [
        {
          "internalType": "uint256",
          "name": "",
          "type": "uint256"
        }
      ],
      "name": "certificationToPurchase",
      "outputs": [
        {
          "internalType": "uint256",
          "name": "",
          "type": "uint256"
        }
      ],
      "stateMutability": "view",
      "type": "function"
    },
    {
      "inputs": [
        {
          "internalType": "uint256",
          "name": "",
          "type": "uint256"
        }
      ],
      "name": "certifications",
      "outputs": [
        {
          "internalType": "uint256",
          "name": "id",
          "type": "uint256"
        },
        {
          "internalType": "address",
          "name": "author",
          "type": "address"
        },
        {
          "internalType": "string",
          "name": "title",
          "type": "string"
        },
        {
          "internalType": "string",
          "name": "hash",
          "type": "string"
        },
        {
          "internalType": "string",
          "name": "category",
          "type": "string"
        },
        {
          "internalType": "uint256",
          "name": "timestamp",
          "type": "uint256"
        },
        {
          "internalType": "bool",
          "name": "certified",
          "type": "bool"
        }
      ],
      "stateMutability": "view",
      "type": "function"
    },
    {
      "inputs": [],
      "name": "nextCertId",
      "outputs": [
        {
          "internalType": "uint256",
          "name": "",
          "type": "uint256"
        }
      ],
      "stateMutability": "view",
      "type": "function"
    },
    {
      "inputs": [],
      "name": "nextPurchaseId",
      "outputs": [
        {
          "internalType": "uint256",
          "name": "",
          "type": "uint256"
        }
      ],
      "stateMutability": "view",
      "type": "function"
    },
    {
      "inputs": [],
      "name": "nextUserId",
      "outputs": [
        {
          "internalType": "uint256",
          "name": "",
          "type": "uint256"
        }
      ],
      "stateMutability": "view",
      "type": "function"
    },
    {
      "inputs": [
        {
          "internalType": "uint256",
          "name": "",
          "type": "uint256"
        }
      ],
      "name": "purchases",
      "outputs": [
        {
          "internalType": "uint256",
          "name": "id",
          "type": "uint256"
        },
        {
          "internalType": "uint256",
          "name": "certId",
          "type": "uint256"
        },
        {
          "internalType": "address",
          "name": "buyer",
          "type": "address"
        },
        {
          "internalType": "address",
          "name": "seller",
          "type": "address"
        },
        {
          "internalType": "uint256",
          "name": "price",
          "type": "uint256"
        },
        {
          "internalType": "uint256",
          "name": "timestamp",
          "type": "uint256"
        },
        {
          "internalType": "bool",
          "name": "completed",
          "type": "bool"
        }
      ],
      "stateMutability": "view",
      "type": "function"
    },
    {
      "inputs": [
        {
          "internalType": "address",
          "name": "",
          "type": "address"
        }
      ],
      "name": "users",
      "outputs": [
        {
          "internalType": "uint256",
          "name": "id",
          "type": "uint256"
        },
        {
          "internalType": "string",
          "name": "account",
          "type": "string"
        },
        {
          "internalType": "string",
          "name": "nickname",
          "type": "string"
        },
        {
          "internalType": "address",
          "name": "walletAddress",
          "type": "address"
        },
        {
          "internalType": "uint256",
          "name": "registerTime",
          "type": "uint256"
        },
        {
          "internalType": "bool",
          "name": "registered",
          "type": "bool"
        },
        {
          "internalType": "bool",
          "name": "isAdmin",
          "type": "bool"
        }
      ],
      "stateMutability": "view",
      "type": "function"
    },
    {
      "inputs": [
        {
          "internalType": "string",
          "name": "account",
          "type": "string"
        },
        {
          "internalType": "string",
          "name": "nickname",
          "type": "string"
        }
      ],
      "name": "register",
      "outputs": [
        {
          "internalType": "uint256",
          "name": "",
          "type": "uint256"
        }
      ],
      "stateMutability": "nonpayable",
      "type": "function"
    },
    {
      "inputs": [
        {
          "internalType": "string",
          "name": "title",
          "type": "string"
        },
        {
          "internalType": "string",
          "name": "hash",
          "type": "string"
        },
        {
          "internalType": "string",
          "name": "category",
          "type": "string"
        },
        {
          "internalType": "address",
          "name": "author",
          "type": "address"
        }
      ],
      "name": "certify",
      "outputs": [
        {
          "internalType": "uint256",
          "name": "",
          "type": "uint256"
        }
      ],
      "stateMutability": "nonpayable",
      "type": "function"
    },
    {
      "inputs": [
        {
          "internalType": "uint256",
          "name": "id",
          "type": "uint256"
        }
      ],
      "name": "getCertification",
      "outputs": [
        {
          "components": [
            {
              "internalType": "uint256",
              "name": "id",
              "type": "uint256"
            },
            {
              "internalType": "address",
              "name": "author",
              "type": "address"
            },
            {
              "internalType": "string",
              "name": "title",
              "type": "string"
            },
            {
              "internalType": "string",
              "name": "hash",
              "type": "string"
            },
            {
              "internalType": "string",
              "name": "category",
              "type": "string"
            },
            {
              "internalType": "uint256",
              "name": "timestamp",
              "type": "uint256"
            },
            {
              "internalType": "bool",
              "name": "certified",
              "type": "bool"
            }
          ],
          "internalType": "struct PhotoCertification.Certification",
          "name": "",
          "type": "tuple"
        }
      ],
      "stateMutability": "view",
      "type": "function"
    },
    {
      "inputs": [
        {
          "internalType": "address",
          "name": "author",
          "type": "address"
        }
      ],
      "name": "getAuthorCertifications",
      "outputs": [
        {
          "internalType": "uint256[]",
          "name": "",
          "type": "uint256[]"
        }
      ],
      "stateMutability": "view",
      "type": "function"
    },
    {
      "inputs": [],
      "name": "getCertificationCount",
      "outputs": [
        {
          "internalType": "uint256",
          "name": "",
          "type": "uint256"
        }
      ],
      "stateMutability": "view",
      "type": "function"
    },
    {
      "inputs": [
        {
          "internalType": "address",
          "name": "addr",
          "type": "address"
        }
      ],
      "name": "getUser",
      "outputs": [
        {
          "components": [
            {
              "internalType": "uint256",
              "name": "id",
              "type": "uint256"
            },
            {
              "internalType": "string",
              "name": "account",
              "type": "string"
            },
            {
              "internalType": "string",
              "name": "nickname",
              "type": "string"
            },
            {
              "internalType": "address",
              "name": "walletAddress",
              "type": "address"
            },
            {
              "internalType": "uint256",
              "name": "registerTime",
              "type": "uint256"
            },
            {
              "internalType": "bool",
              "name": "registered",
              "type": "bool"
            },
            {
              "internalType": "bool",
              "name": "isAdmin",
              "type": "bool"
            }
          ],
          "internalType": "struct PhotoCertification.User",
          "name": "",
          "type": "tuple"
        }
      ],
      "stateMutability": "view",
      "type": "function"
    },
    {
      "inputs": [],
      "name": "getUserId",
      "outputs": [
        {
          "internalType": "uint256",
          "name": "",
          "type": "uint256"
        }
      ],
      "stateMutability": "view",
      "type": "function"
    },
    {
      "inputs": [
        {
          "internalType": "uint256",
          "name": "certId",
          "type": "uint256"
        }
      ],
      "name": "purchase",
      "outputs": [
        {
          "internalType": "uint256",
          "name": "",
          "type": "uint256"
        }
      ],
      "stateMutability": "payable",
      "type": "function"
    }
  ],
  "bytecode": "0x608060405234801561001057600080fd5b5033600660006101000a81548173ffffffffffffffffffffffffffffffffffffffff021916908373ffffffffffffffffffffffffffffffffffffffff160217905550612d19806100616000396000f3fe6080604052600436106101095760003560e01c80638392fe3111610095578063dbfef92811610064578063dbfef928146103df578063ec981eac1461041c578063ee41c60b14610459578063efef39a114610496578063f851a440146104c657610109565b80638392fe31146102f157806392968d4814610334578063a1e6a25514610371578063a87430ba1461039c57610109565b80633c0359a4116100dc5780633c0359a4146101cc5780633ffbd47f1461020f57806344afd1341461024c57806364c84c3b146102775780636f77926b146102b457610109565b806323b4a7a31461010e5780632a8e6a8e146101395780632e95e2ed146101645780632ebcb653146101a1575b600080fd5b34801561011a57600080fd5b506101236104f1565b6040516101309190611aa3565b60405180910390f35b34801561014557600080fd5b5061014e6104f7565b60405161015b9190611aa3565b60405180910390f35b34801561017057600080fd5b5061018b60048036038101906101869190611afe565b6104fd565b6040516101989190611aa3565b60405180910390f35b3480156101ad57600080fd5b506101b6610515565b6040516101c39190611aa3565b60405180910390f35b3480156101d857600080fd5b506101f360048036038101906101ee9190611afe565b61051f565b6040516102069796959493929190611c17565b60405180910390f35b34801561021b57600080fd5b5061023660048036038101906102319190611dd0565b610726565b6040516102439190611aa3565b60405180910390f35b34801561025857600080fd5b50610261610a8a565b60405161026e9190611aa3565b60405180910390f35b34801561028357600080fd5b5061029e60048036038101906102999190611e74565b610a94565b6040516102ab9190611f5f565b60405180910390f35b3480156102c057600080fd5b506102db60048036038101906102d69190611e74565b610b2b565b6040516102e8919061208c565b60405180910390f35b3480156102fd57600080fd5b5061031860048036038101906103139190611afe565b610d48565b60405161032b97969594939291906120ae565b60405180910390f35b34801561034057600080fd5b5061035b6004803603810190610356919061211d565b610dd7565b6040516103689190611aa3565b60405180910390f35b34801561037d57600080fd5b50610386611066565b6040516103939190611aa3565b60405180910390f35b3480156103a857600080fd5b506103c360048036038101906103be9190611e74565b61106c565b6040516103d697969594939291906121d8565b60405180910390f35b3480156103eb57600080fd5b5061040660048036038101906104019190612255565b6111f8565b6040516104139190611aa3565b60405180910390f35b34801561042857600080fd5b50610443600480360381019061043e9190611afe565b611229565b604051610450919061233f565b60405180910390f35b34801561046557600080fd5b50610480600480360381019061047b9190612361565b611490565b60405161048d91906123aa565b60405180910390f35b6104b060048036038101906104ab9190611afe565b6114d9565b6040516104bd9190611aa3565b60405180910390f35b3480156104d257600080fd5b506104db6119b8565b6040516104e891906123aa565b60405180910390f35b60095481565b60045481565b60086020528060005260406000206000915090505481565b6000600554905090565b60006020528060005260406000206000915090508060000154908060010160009054906101000a900473ffffffffffffffffffffffffffffffffffffffff169080600201805461056e906123f4565b80601f016020809104026020016040519081016040528092919081815260200182805461059a906123f4565b80156105e75780601f106105bc576101008083540402835291602001916105e7565b820191906000526020600020905b8154815290600101906020018083116105ca57829003601f168201915b5050505050908060030180546105fc906123f4565b80601f0160208091040260200160405190810160405280929190818152602001828054610628906123f4565b80156106755780601f1061064a57610100808354040283529160200191610675565b820191906000526020600020905b81548152906001019060200180831161065857829003601f168201915b50505050509080600401805461068a906123f4565b80601f01602080910402602001604051908101604052809291908181526020018280546106b6906123f4565b80156107035780601f106106d857610100808354040283529160200191610703565b820191906000526020600020905b8154815290600101906020018083116106e657829003601f168201915b5050505050908060050154908060060160009054906101000a900460ff16905087565b6000600260003373ffffffffffffffffffffffffffffffffffffffff1673ffffffffffffffffffffffffffffffffffffffff16815260200190815260200160002060050160009054906101000a900460ff16156107b8576040517f08c379a00000000000000000000000000000000000000000000000000000000081526004016107af90612471565b60405180910390fd5b6000600560008154809291906107cd906124c0565b91905055905060006040516020016107e49061255f565b604051602081830303815290604052805190602001208560405160200161080b91906125a5565b604051602081830303815290604052805190602001201480610876575060405160200161083790612608565b604051602081830303815290604052805190602001208560405160200161085e91906125a5565b60405160208183030381529060405280519060200120145b90506040518060e001604052808381526020018681526020018581526020013373ffffffffffffffffffffffffffffffffffffffff168152602001428152602001600115158152602001821515815250600260003373ffffffffffffffffffffffffffffffffffffffff1673ffffffffffffffffffffffffffffffffffffffff16815260200190815260200160002060008201518160000155602082015181600101908161092491906127c9565b50604082015181600201908161093a91906127c9565b5060608201518160030160006101000a81548173ffffffffffffffffffffffffffffffffffffffff021916908373ffffffffffffffffffffffffffffffffffffffff1602179055506080820151816004015560a08201518160050160006101000a81548160ff02191690831515021790555060c08201518160050160016101000a81548160ff021916908315150217905550905050336003866040516109e091906125a5565b908152602001604051809103902060006101000a81548173ffffffffffffffffffffffffffffffffffffffff021916908373ffffffffffffffffffffffffffffffffffffffff1602179055503373ffffffffffffffffffffffffffffffffffffffff16827feea44fbfac1708b6b4505b79966e55787c68f751ba456c680638f4ef7fcc8403878742604051610a779392919061289b565b60405180910390a3819250505092915050565b6000600454905090565b6060600160008373ffffffffffffffffffffffffffffffffffffffff1673ffffffffffffffffffffffffffffffffffffffff168152602001908152602001600020805480602002602001604051908101604052809291908181526020018280548015610b1f57602002820191906000526020600020905b815481526020019060010190808311610b0b575b50505050509050919050565b610b336119de565b600260008373ffffffffffffffffffffffffffffffffffffffff1673ffffffffffffffffffffffffffffffffffffffff1681526020019081526020016000206040518060e001604052908160008201548152602001600182018054610b97906123f4565b80601f0160208091040260200160405190810160405280929190818152602001828054610bc3906123f4565b8015610c105780601f10610be557610100808354040283529160200191610c10565b820191906000526020600020905b815481529060010190602001808311610bf357829003601f168201915b50505050508152602001600282018054610c29906123f4565b80601f0160208091040260200160405190810160405280929190818152602001828054610c55906123f4565b8015610ca25780601f10610c7757610100808354040283529160200191610ca2565b820191906000526020600020905b815481529060010190602001808311610c8557829003601f168201915b505050505081526020016003820160009054906101000a900473ffffffffffffffffffffffffffffffffffffffff1673ffffffffffffffffffffffffffffffffffffffff1673ffffffffffffffffffffffffffffffffffffffff168152602001600482015481526020016005820160009054906101000a900460ff161515151581526020016005820160019054906101000a900460ff1615151515815250509050919050565b60076020528060005260406000206000915090508060000154908060010154908060020160009054906101000a900473ffffffffffffffffffffffffffffffffffffffff16908060030160009054906101000a900473ffffffffffffffffffffffffffffffffffffffff16908060040154908060050154908060060160009054906101000a900460ff16905087565b6000600260003373ffffffffffffffffffffffffffffffffffffffff1673ffffffffffffffffffffffffffffffffffffffff16815260200190815260200160002060050160019054906101000a900460ff16610e68576040517f08c379a0000000000000000000000000000000000000000000000000000000008152600401610e5f9061292c565b60405180910390fd5b600060046000815480929190610e7d906124c0565b9190505590506040518060e001604052808281526020018473ffffffffffffffffffffffffffffffffffffffff168152602001878152602001868152602001858152602001428152602001600115158152506000808381526020019081526020016000206000820151816000015560208201518160010160006101000a81548173ffffffffffffffffffffffffffffffffffffffff021916908373ffffffffffffffffffffffffffffffffffffffff1602179055506040820151816002019081610f4791906127c9565b506060820151816003019081610f5d91906127c9565b506080820151816004019081610f7391906127c9565b5060a0820151816005015560c08201518160060160006101000a81548160ff021916908315150217905550905050600160008473ffffffffffffffffffffffffffffffffffffffff1673ffffffffffffffffffffffffffffffffffffffff1681526020019081526020016000208190806001815401808255809150506001900390600052602060002001600090919091909150558273ffffffffffffffffffffffffffffffffffffffff16817faa212fc1513f9d875e902f36762a5731a053ca0e2d04b799ef5e34892aa63cec8888426040516110529392919061289b565b60405180910390a380915050949350505050565b60055481565b6002602052806000526040600020600091509050806000015490806001018054611095906123f4565b80601f01602080910402602001604051908101604052809291908181526020018280546110c1906123f4565b801561110e5780601f106110e35761010080835404028352916020019161110e565b820191906000526020600020905b8154815290600101906020018083116110f157829003601f168201915b505050505090806002018054611123906123f4565b80601f016020809104026020016040519081016040528092919081815260200182805461114f906123f4565b801561119c5780601f106111715761010080835404028352916020019161119c565b820191906000526020600020905b81548152906001019060200180831161117f57829003601f168201915b5050505050908060030160009054906101000a900473ffffffffffffffffffffffffffffffffffffffff16908060040154908060050160009054906101000a900460ff16908060050160019054906101000a900460ff16905087565b6001602052816000526040600020818154811061121457600080fd5b90600052602060002001600091509150505481565b611231611a35565b6000808381526020019081526020016000206040518060e0016040529081600082015481526020016001820160009054906101000a900473ffffffffffffffffffffffffffffffffffffffff1673ffffffffffffffffffffffffffffffffffffffff1673ffffffffffffffffffffffffffffffffffffffff1681526020016002820180546112be906123f4565b80601f01602080910402602001604051908101604052809291908181526020018280546112ea906123f4565b80156113375780601f1061130c57610100808354040283529160200191611337565b820191906000526020600020905b81548152906001019060200180831161131a57829003601f168201915b50505050508152602001600382018054611350906123f4565b80601f016020809104026020016040519081016040528092919081815260200182805461137c906123f4565b80156113c95780601f1061139e576101008083540402835291602001916113c9565b820191906000526020600020905b8154815290600101906020018083116113ac57829003601f168201915b505050505081526020016004820180546113e2906123f4565b80601f016020809104026020016040519081016040528092919081815260200182805461140e906123f4565b801561145b5780601f106114305761010080835404028352916020019161145b565b820191906000526020600020905b81548152906001019060200180831161143e57829003601f168201915b50505050508152602001600582015481526020016006820160009054906101000a900460ff1615151515815250509050919050565b6003818051602081018201805184825260208301602085012081835280955050505050506000915054906101000a900473ffffffffffffffffffffffffffffffffffffffff1681565b6000600454821061151f576040517f08c379a000000000000000000000000000000000000000000000000000000000815260040161151690612998565b60405180910390fd5b600080600084815260200190815260200160002090508060060160009054906101000a900460ff16611586576040517f08c379a000000000000000000000000000000000000000000000000000000000815260040161157d90612a04565b60405180910390fd5b60006008600085815260200190815260200160002054146115dc576040517f08c379a00000000000000000000000000000000000000000000000000000000081526004016115d390612a70565b60405180910390fd5b60008160010160009054906101000a900473ffffffffffffffffffffffffffffffffffffffff169050600073ffffffffffffffffffffffffffffffffffffffff168173ffffffffffffffffffffffffffffffffffffffff1603611674576040517f08c379a000000000000000000000000000000000000000000000000000000000815260040161166b90612adc565b60405180910390fd5b3373ffffffffffffffffffffffffffffffffffffffff168173ffffffffffffffffffffffffffffffffffffffff16036116e2576040517f08c379a00000000000000000000000000000000000000000000000000000000081526004016116d990612b6e565b60405180910390fd5b60003490506000811161172a576040517f08c379a000000000000000000000000000000000000000000000000000000000815260040161172190612bda565b60405180910390fd5b60008273ffffffffffffffffffffffffffffffffffffffff168260405161175090612c2b565b60006040518083038185875af1925050503d806000811461178d576040519150601f19603f3d011682016040523d82523d6000602084013e611792565b606091505b50509050806117d6576040517f08c379a00000000000000000000000000000000000000000000000000000000081526004016117cd90612c8c565b60405180910390fd5b6000600960008154809291906117eb906124c0565b9190505590506040518060e001604052808281526020018881526020013373ffffffffffffffffffffffffffffffffffffffff1681526020018573ffffffffffffffffffffffffffffffffffffffff1681526020018481526020014281526020016001151581525060076000838152602001908152602001600020600082015181600001556020820151816001015560408201518160020160006101000a81548173ffffffffffffffffffffffffffffffffffffffff021916908373ffffffffffffffffffffffffffffffffffffffff16021790555060608201518160030160006101000a81548173ffffffffffffffffffffffffffffffffffffffff021916908373ffffffffffffffffffffffffffffffffffffffff1602179055506080820151816004015560a0820151816005015560c08201518160060160006101000a81548160ff0219169083151502179055509050508060086000898152602001908152602001600020819055503373ffffffffffffffffffffffffffffffffffffffff1687827fce05e8a2f0615a7c27ea8d46f15918d9ac5f9f9080a220e66b7d13b3134d24fe8787426040516119a393929190612cac565b60405180910390a48095505050505050919050565b600660009054906101000a900473ffffffffffffffffffffffffffffffffffffffff1681565b6040518060e00160405280600081526020016060815260200160608152602001600073ffffffffffffffffffffffffffffffffffffffff168152602001600081526020016000151581526020016000151581525090565b6040518060e0016040528060008152602001600073ffffffffffffffffffffffffffffffffffffffff168152602001606081526020016060815260200160608152602001600081526020016000151581525090565b6000819050919050565b611a9d81611a8a565b82525050565b6000602082019050611ab86000830184611a94565b92915050565b6000604051905090565b600080fd5b600080fd5b611adb81611a8a565b8114611ae657600080fd5b50565b600081359050611af881611ad2565b92915050565b600060208284031215611b1457611b13611ac8565b5b6000611b2284828501611ae9565b91505092915050565b600073ffffffffffffffffffffffffffffffffffffffff82169050919050565b6000611b5682611b2b565b9050919050565b611b6681611b4b565b82525050565b600081519050919050565b600082825260208201905092915050565b60005b83811015611ba6578082015181840152602081019050611b8b565b60008484015250505050565b6000601f19601f8301169050919050565b6000611bce82611b6c565b611bd88185611b77565b9350611be8818560208601611b88565b611bf181611bb2565b840191505092915050565b60008115159050919050565b611c1181611bfc565b82525050565b600060e082019050611c2c600083018a611a94565b611c396020830189611b5d565b8181036040830152611c4b8188611bc3565b90508181036060830152611c5f8187611bc3565b90508181036080830152611c738186611bc3565b9050611c8260a0830185611a94565b611c8f60c0830184611c08565b98975050505050505050565b600080fd5b600080fd5b7f4e487b7100000000000000000000000000000000000000000000000000000000600052604160045260246000fd5b611cdd82611bb2565b810181811067ffffffffffffffff82111715611cfc57611cfb611ca5565b5b80604052505050565b6000611d0f611abe565b9050611d1b8282611cd4565b919050565b600067ffffffffffffffff821115611d3b57611d3a611ca5565b5b611d4482611bb2565b9050602081019050919050565b82818337600083830152505050565b6000611d73611d6e84611d20565b611d05565b905082815260208101848484011115611d8f57611d8e611ca0565b5b611d9a848285611d51565b509392505050565b600082601f830112611db757611db6611c9b565b5b8135611dc7848260208601611d60565b91505092915050565b60008060408385031215611de757611de6611ac8565b5b600083013567ffffffffffffffff811115611e0557611e04611acd565b5b611e1185828601611da2565b925050602083013567ffffffffffffffff811115611e3257611e31611acd565b5b611e3e85828601611da2565b9150509250929050565b611e5181611b4b565b8114611e5c57600080fd5b50565b600081359050611e6e81611e48565b92915050565b600060208284031215611e8a57611e89611ac8565b5b6000611e9884828501611e5f565b91505092915050565b600081519050919050565b600082825260208201905092915050565b6000819050602082019050919050565b611ed681611a8a565b82525050565b6000611ee88383611ecd565b60208301905092915050565b6000602082019050919050565b6000611f0c82611ea1565b611f168185611eac565b9350611f2183611ebd565b8060005b83811015611f52578151611f398882611edc565b9750611f4483611ef4565b925050600181019050611f25565b5085935050505092915050565b60006020820190508181036000830152611f798184611f01565b905092915050565b600082825260208201905092915050565b6000611f9d82611b6c565b611fa78185611f81565b9350611fb7818560208601611b88565b611fc081611bb2565b840191505092915050565b611fd481611b4b565b82525050565b611fe381611bfc565b82525050565b600060e0830160008301516120016000860182611ecd565b50602083015184820360208601526120198282611f92565b915050604083015184820360408601526120338282611f92565b91505060608301516120486060860182611fcb565b50608083015161205b6080860182611ecd565b5060a083015161206e60a0860182611fda565b5060c083015161208160c0860182611fda565b508091505092915050565b600060208201905081810360008301526120a68184611fe9565b905092915050565b600060e0820190506120c3600083018a611a94565b6120d06020830189611a94565b6120dd6040830188611b5d565b6120ea6060830187611b5d565b6120f76080830186611a94565b61210460a0830185611a94565b61211160c0830184611c08565b98975050505050505050565b6000806000806080858703121561213757612136611ac8565b5b600085013567ffffffffffffffff81111561215557612154611acd565b5b61216187828801611da2565b945050602085013567ffffffffffffffff81111561218257612181611acd565b5b61218e87828801611da2565b935050604085013567ffffffffffffffff8111156121af576121ae611acd565b5b6121bb87828801611da2565b92505060606121cc87828801611e5f565b91505092959194509250565b600060e0820190506121ed600083018a611a94565b81810360208301526121ff8189611bc3565b905081810360408301526122138188611bc3565b90506122226060830187611b5d565b61222f6080830186611a94565b61223c60a0830185611c08565b61224960c0830184611c08565b98975050505050505050565b6000806040838503121561226c5761226b611ac8565b5b600061227a85828601611e5f565b925050602061228b85828601611ae9565b9150509250929050565b600060e0830160008301516122ad6000860182611ecd565b5060208301516122c06020860182611fcb565b50604083015184820360408601526122d88282611f92565b915050606083015184820360608601526122f28282611f92565b9150506080830151848203608086015261230c8282611f92565b91505060a083015161232160a0860182611ecd565b5060c083015161233460c0860182611fda565b508091505092915050565b600060208201905081810360008301526123598184612295565b905092915050565b60006020828403121561237757612376611ac8565b5b600082013567ffffffffffffffff81111561239557612394611acd565b5b6123a184828501611da2565b91505092915050565b60006020820190506123bf6000830184611b5d565b92915050565b7f4e487b7100000000000000000000000000000000000000000000000000000000600052602260045260246000fd5b6000600282049050600182168061240c57607f821691505b60208210810361241f5761241e6123c5565b5b50919050565b7f5573657220616c72656164792072656769737465726564000000000000000000600082015250565b600061245b601783611b77565b915061246682612425565b602082019050919050565b6000602082019050818103600083015261248a8161244e565b9050919050565b7f4e487b7100000000000000000000000000000000000000000000000000000000600052601160045260246000fd5b60006124cb82611a8a565b91507fffffffffffffffffffffffffffffffffffffffffffffffffffffffffffffffff82036124fd576124fc612491565b5b600182019050919050565b600081905092915050565b7f61646d696e000000000000000000000000000000000000000000000000000000600082015250565b6000612549600583612508565b915061255482612513565b600582019050919050565b600061256a8261253c565b9150819050919050565b600061257f82611b6c565b6125898185612508565b9350612599818560208601611b88565b80840191505092915050565b60006125b18284612574565b915081905092915050565b7f61646d696e310000000000000000000000000000000000000000000000000000600082015250565b60006125f2600683612508565b91506125fd826125bc565b600682019050919050565b6000612613826125e5565b9150819050919050565b60008190508160005260206000209050919050565b60006020601f8301049050919050565b600082821b905092915050565b60006008830261267f7fffffffffffffffffffffffffffffffffffffffffffffffffffffffffffffffff82612642565b6126898683612642565b95508019841693508086168417925050509392505050565b6000819050919050565b60006126c66126c16126bc84611a8a565b6126a1565b611a8a565b9050919050565b6000819050919050565b6126e0836126ab565b6126f46126ec826126cd565b84845461264f565b825550505050565b600090565b6127096126fc565b6127148184846126d7565b505050565b5b818110156127385761272d600082612701565b60018101905061271a565b5050565b601f82111561277d5761274e8161261d565b61275784612632565b81016020851015612766578190505b61277a61277285612632565b830182612719565b50505b505050565b600082821c905092915050565b60006127a060001984600802612782565b1980831691505092915050565b60006127b9838361278f565b9150826002028217905092915050565b6127d282611b6c565b67ffffffffffffffff8111156127eb576127ea611ca5565b5b6127f582546123f4565b61280082828561273c565b600060209050601f8311600181146128335760008415612821578287015190505b61282b85826127ad565b865550612893565b601f1984166128418661261d565b60005b8281101561286957848901518255600182019150602085019450602081019050612844565b868310156128865784890151612882601f89168261278f565b8355505b6001600288020188555050505b505050505050565b600060608201905081810360008301526128b58186611bc3565b905081810360208301526128c98185611bc3565b90506128d86040830184611a94565b949350505050565b7f4f6e6c792061646d696e2063616e206365727469667900000000000000000000600082015250565b6000612916601683611b77565b9150612921826128e0565b602082019050919050565b6000602082019050818103600083015261294581612909565b9050919050565b7f43657274696669636174696f6e20646f6573206e6f7420657869737400000000600082015250565b6000612982601c83611b77565b915061298d8261294c565b602082019050919050565b600060208201905081810360008301526129b181612975565b9050919050565b7f43657274696669636174696f6e206e6f74206365727469666965640000000000600082015250565b60006129ee601b83611b77565b91506129f9826129b8565b602082019050919050565b60006020820190508181036000830152612a1d816129e1565b9050919050565b7f43657274696669636174696f6e20616c72656164792070757263686173656400600082015250565b6000612a5a601f83611b77565b9150612a6582612a24565b602082019050919050565b60006020820190508181036000830152612a8981612a4d565b9050919050565b7f496e76616c69642073656c6c6572206164647265737300000000000000000000600082015250565b6000612ac6601683611b77565b9150612ad182612a90565b602082019050919050565b60006020820190508181036000830152612af581612ab9565b9050919050565b7f43616e6e6f7420707572636861736520796f7572206f776e206365727469666960008201527f636174696f6e0000000000000000000000000000000000000000000000000000602082015250565b6000612b58602683611b77565b9150612b6382612afc565b604082019050919050565b60006020820190508181036000830152612b8781612b4b565b9050919050565b7f5072696365206d7573742062652067726561746572207468616e207a65726f00600082015250565b6000612bc4601f83611b77565b9150612bcf82612b8e565b602082019050919050565b60006020820190508181036000830152612bf381612bb7565b9050919050565b600081905092915050565b50565b6000612c15600083612bfa565b9150612c2082612c05565b600082019050919050565b6000612c3682612c08565b9150819050919050565b7f5472616e7366657220746f2073656c6c6572206661696c656400000000000000600082015250565b6000612c76601983611b77565b9150612c8182612c40565b602082019050919050565b60006020820190508181036000830152612ca581612c69565b9050919050565b6000606082019050612cc16000830186611b5d565b612cce6020830185611a94565b612cdb6040830184611a94565b94935050505056fea2646970667358221220d4b90529ea8711d294611305946ffd0ab7175d57b914433ec90b5e7a9f37a7b664736f6c63430008120033",
  "immutableReferences": {},
  "source": "//SPDX-License-Identifier:MIT\npragma solidity >=0.8.0 <0.9.0;\n\ncontract PhotoCertification {\n    struct Certification {\n        uint256 id;\n        address author;\n        string title;\n        string hash;\n        string category;\n        uint256 timestamp;\n        bool certified;\n    }\n\n    struct User {\n        uint256 id;\n        string account;\n        string nickname;\n        address walletAddress;\n        uint256 registerTime;\n        bool registered;\n        bool isAdmin;\n    }\n\n    mapping(uint256 => Certification) public certifications;\n    mapping(address => uint256[]) public authorCertifications;\n    mapping(address => User) public users;\n    mapping(string => address) public accountToAddress;\n    uint256 public nextCertId;\n    uint256 public nextUserId;\n    address public admin;\n\n    event Certified(\n        uint256 indexed id,\n        address indexed author,\n        string title,\n        string hash,\n        uint256 timestamp\n    );\n\n    event Registered(\n        uint256 indexed id,\n        string account,\n        string nickname,\n        address indexed walletAddress,\n        uint256 timestamp\n    );\n\n    event Purchased(\n        uint256 indexed id,\n        uint256 indexed certId,\n        address indexed buyer,\n        address seller,\n        uint256 price,\n        uint256 timestamp\n    );\n\n    struct Purchase {\n        uint256 id;\n        uint256 certId;\n        address buyer;\n        address seller;\n        uint256 price;\n        uint256 timestamp;\n        bool completed;\n    }\n\n    mapping(uint256 => Purchase) public purchases;\n    mapping(uint256 => uint256) public certificationToPurchase;\n    uint256 public nextPurchaseId;\n\n    modifier onlyAdmin() {\n        require(users[msg.sender].isAdmin, \"Only admin can certify\");\n        _;\n    }\n\n    constructor() {\n        admin = msg.sender;\n    }\n\n    function register(\n        string memory account,\n        string memory nickname\n    ) public returns (uint256) {\n        require(!users[msg.sender].registered, \"User already registered\");\n        \n        uint256 userId = nextUserId++;\n        \n        bool isAdminUser = keccak256(abi.encodePacked(account)) == keccak256(abi.encodePacked(\"admin\")) ||\n                          keccak256(abi.encodePacked(account)) == keccak256(abi.encodePacked(\"admin1\"));\n        \n        users[msg.sender] = User({\n            id: userId,\n            account: account,\n            nickname: nickname,\n            walletAddress: msg.sender,\n            registerTime: block.timestamp,\n            registered: true,\n            isAdmin: isAdminUser\n        });\n        \n        accountToAddress[account] = msg.sender;\n\n        emit Registered(userId, account, nickname, msg.sender, block.timestamp);\n        \n        return userId;\n    }\n\n    function certify(\n        string memory title,\n        string memory hash,\n        string memory category,\n        address author\n    ) public onlyAdmin returns (uint256) {\n        uint256 certId = nextCertId++;\n        \n        certifications[certId] = Certification({\n            id: certId,\n            author: author,\n            title: title,\n            hash: hash,\n            category: category,\n            timestamp: block.timestamp,\n            certified: true\n        });\n\n        authorCertifications[author].push(certId);\n\n        emit Certified(certId, author, title, hash, block.timestamp);\n        \n        return certId;\n    }\n\n    function getCertification(uint256 id) public view returns (Certification memory) {\n        return certifications[id];\n    }\n\n    function getAuthorCertifications(address author) public view returns (uint256[] memory) {\n        return authorCertifications[author];\n    }\n\n    function getCertificationCount() public view returns (uint256) {\n        return nextCertId;\n    }\n\n    function getUser(address addr) public view returns (User memory) {\n        return users[addr];\n    }\n\n    function getUserId() public view returns (uint256) {\n        return nextUserId;\n    }\n\n    function purchase(uint256 certId) public payable returns (uint256) {\n        require(certId < nextCertId, \"Certification does not exist\");\n        \n        Certification storage cert = certifications[certId];\n        require(cert.certified, \"Certification not certified\");\n        require(certificationToPurchase[certId] == 0, \"Certification already purchased\");\n        \n        address seller = cert.author;\n        require(seller != address(0), \"Invalid seller address\");\n        require(seller != msg.sender, \"Cannot purchase your own certification\");\n        \n        uint256 price = msg.value;\n        require(price > 0, \"Price must be greater than zero\");\n        \n        (bool success, ) = seller.call{value: price}(\"\");\n        require(success, \"Transfer to seller failed\");\n        \n        uint256 purchaseId = nextPurchaseId++;\n        \n        purchases[purchaseId] = Purchase({\n            id: purchaseId,\n            certId: certId,\n            buyer: msg.sender,\n            seller: seller,\n            price: price,\n            timestamp: block.timestamp,\n            completed: true\n        });\n        \n        certificationToPurchase[certId] = purchaseId;\n        \n        emit Purchased(purchaseId, certId, msg.sender, seller, price, block.timestamp);\n        \n        return purchaseId;\n    }\n}",
  "sourcePath": "D:\\源代码\\Photography\\contracts\\PhotoCertification.sol",
  "compiler": {
    "name": "solc",
    "version": "0.8.18+commit.87f61d96.Emscripten.clang"
  },
  "schemaVersion": "3.4.16",
  "updatedAt": "2026-06-30T11:45:16.036Z",
  "devdoc": {
    "kind": "dev",
    "methods": {},
    "version": 1
  },
  "userdoc": {
    "kind": "user",
    "methods": {},
    "version": 1
  }
}