{
  "contractName": "UserManager",
  "abi": [
    {
      "inputs": [
        {
          "internalType": "address",
          "name": "addr",
          "type": "address"
        },
        {
          "internalType": "string",
          "name": "name",
          "type": "string"
        },
        {
          "internalType": "string",
          "name": "pwd",
          "type": "string"
        }
      ],
      "name": "register",
      "outputs": [],
      "stateMutability": "nonpayable",
      "type": "function"
    },
    {
      "inputs": [
        {
          "internalType": "address",
          "name": "addr",
          "type": "address"
        },
        {
          "internalType": "string",
          "name": "name",
          "type": "string"
        },
        {
          "internalType": "string",
          "name": "pwd",
          "type": "string"
        }
      ],
      "name": "login",
      "outputs": [
        {
          "internalType": "string",
          "name": "",
          "type": "string"
        }
      ],
      "stateMutability": "view",
      "type": "function"
    },
    {
      "inputs": [
        {
          "internalType": "address",
          "name": "addr",
          "type": "address"
        },
        {
          "internalType": "string",
          "name": "newPwd",
          "type": "string"
        }
      ],
      "name": "updatePwd",
      "outputs": [],
      "stateMutability": "nonpayable",
      "type": "function"
    },
    {
      "inputs": [
        {
          "internalType": "address",
          "name": "addr",
          "type": "address"
        },
        {
          "internalType": "string",
          "name": "newName",
          "type": "string"
        }
      ],
      "name": "updateName",
      "outputs": [],
      "stateMutability": "nonpayable",
      "type": "function"
    },
    {
      "inputs": [
        {
          "internalType": "address",
          "name": "addr",
          "type": "address"
        }
      ],
      "name": "getUser",
      "outputs": [
        {
          "components": [
            {
              "internalType": "address",
              "name": "owner",
              "type": "address"
            },
            {
              "internalType": "string",
              "name": "name",
              "type": "string"
            },
            {
              "internalType": "string",
              "name": "pwd",
              "type": "string"
            }
          ],
          "internalType": "struct UserManager.User",
          "name": "",
          "type": "tuple"
        }
      ],
      "stateMutability": "view",
      "type": "function"
    },
    {
      "inputs": [
        {
          "internalType": "address",
          "name": "addr",
          "type": "address"
        }
      ],
      "name": "getUserInfo",
      "outputs": [
        {
          "internalType": "address",
          "name": "",
          "type": "address"
        },
        {
          "internalType": "string",
          "name": "",
          "type": "string"
        },
        {
          "internalType": "string",
          "name": "",
          "type": "string"
        }
      ],
      "stateMutability": "view",
      "type": "function"
    },
    {
      "inputs": [],
      "name": "getUserList",
      "outputs": [
        {
          "components": [
            {
              "internalType": "address",
              "name": "owner",
              "type": "address"
            },
            {
              "internalType": "string",
              "name": "name",
              "type": "string"
            },
            {
              "internalType": "string",
              "name": "pwd",
              "type": "string"
            }
          ],
          "internalType": "struct UserManager.User[]",
          "name": "",
          "type": "tuple[]"
        }
      ],
      "stateMutability": "view",
      "type": "function"
    }
  ],
  "bytecode": "0x608060405234801561001057600080fd5b50612245806100206000396000f3fe608060405234801561001057600080fd5b506004361061007d5760003560e01c80638d59cc021161005b5780638d59cc0214610114578063b852204314610130578063b8fd8d3b1461014e578063b9308d9e1461016a5761007d565b80636386c1c7146100825780636f77926b146100b457806379329937146100e4575b600080fd5b61009c60048036038101906100979190611722565b610186565b6040516100ab939291906117ee565b60405180910390f35b6100ce60048036038101906100c99190611722565b61036f565b6040516100db91906118e3565b60405180910390f35b6100fe60048036038101906100f99190611a3a565b610541565b60405161010b9190611ac5565b60405180910390f35b61012e60048036038101906101299190611a3a565b610847565b005b610138610a6a565b6040516101459190611c00565b60405180910390f35b61016860048036038101906101639190611c22565b610c43565b005b610184600480360381019061017f9190611c22565b611052565b005b600060608060008060008673ffffffffffffffffffffffffffffffffffffffff1673ffffffffffffffffffffffffffffffffffffffff1681526020019081526020016000206040518060600160405290816000820160009054906101000a900473ffffffffffffffffffffffffffffffffffffffff1673ffffffffffffffffffffffffffffffffffffffff1673ffffffffffffffffffffffffffffffffffffffff16815260200160018201805461023c90611cad565b80601f016020809104026020016040519081016040528092919081815260200182805461026890611cad565b80156102b55780601f1061028a576101008083540402835291602001916102b5565b820191906000526020600020905b81548152906001019060200180831161029857829003601f168201915b505050505081526020016002820180546102ce90611cad565b80601f01602080910402602001604051908101604052809291908181526020018280546102fa90611cad565b80156103475780601f1061031c57610100808354040283529160200191610347565b820191906000526020600020905b81548152906001019060200180831161032a57829003601f168201915b5050505050815250509050806000015181602001518260400151935093509350509193909250565b610377611679565b6000808373ffffffffffffffffffffffffffffffffffffffff1673ffffffffffffffffffffffffffffffffffffffff1681526020019081526020016000206040518060600160405290816000820160009054906101000a900473ffffffffffffffffffffffffffffffffffffffff1673ffffffffffffffffffffffffffffffffffffffff1673ffffffffffffffffffffffffffffffffffffffff16815260200160018201805461042690611cad565b80601f016020809104026020016040519081016040528092919081815260200182805461045290611cad565b801561049f5780601f106104745761010080835404028352916020019161049f565b820191906000526020600020905b81548152906001019060200180831161048257829003601f168201915b505050505081526020016002820180546104b890611cad565b80601f01602080910402602001604051908101604052809291908181526020018280546104e490611cad565b80156105315780601f1061050657610100808354040283529160200191610531565b820191906000526020600020905b81548152906001019060200180831161051457829003601f168201915b5050505050815250509050919050565b606061054c846114aa565b61058d576040518060400160405280600f81526020017fe8b4a6e688b7e4b88de5ad98e59ca800000000000000000000000000000000008152509050610840565b60008060008673ffffffffffffffffffffffffffffffffffffffff1673ffffffffffffffffffffffffffffffffffffffff1681526020019081526020016000206040518060600160405290816000820160009054906101000a900473ffffffffffffffffffffffffffffffffffffffff1673ffffffffffffffffffffffffffffffffffffffff1673ffffffffffffffffffffffffffffffffffffffff16815260200160018201805461063e90611cad565b80601f016020809104026020016040519081016040528092919081815260200182805461066a90611cad565b80156106b75780601f1061068c576101008083540402835291602001916106b7565b820191906000526020600020905b81548152906001019060200180831161069a57829003601f168201915b505050505081526020016002820180546106d090611cad565b80601f01602080910402602001604051908101604052809291908181526020018280546106fc90611cad565b80156107495780601f1061071e57610100808354040283529160200191610749565b820191906000526020600020905b81548152906001019060200180831161072c57829003601f168201915b505050505081525050905061075d84611548565b61076a8260200151611548565b146107ad576040518060400160405280600f81526020017fe698b5e7a7b0e587bae99499efbc810000000000000000000000000000000000815250915050610840565b6107b683611548565b6107c38260400151611548565b14610806576040518060400160405280600f81526020017fe5af86e7a081e587bae99499efbc810000000000000000000000000000000000815250915050610840565b6040518060400160405280600f81526020017fe799bbe5bd95e68890e58a9fefbc8100000000000000000000000000000000008152509150505b9392505050565b610850836114aa565b15610890576040517f08c379a000000000000000000000000000000000000000000000000000000000815260040161088790611d2a565b60405180910390fd5b61089982611578565b156108d9576040517f08c379a00000000000000000000000000000000000000000000000000000000081526004016108d090611d96565b60405180910390fd5b600060405180606001604052808573ffffffffffffffffffffffffffffffffffffffff168152602001848152602001838152509050806000808673ffffffffffffffffffffffffffffffffffffffff1673ffffffffffffffffffffffffffffffffffffffff16815260200190815260200160002060008201518160000160006101000a81548173ffffffffffffffffffffffffffffffffffffffff021916908373ffffffffffffffffffffffffffffffffffffffff16021790555060208201518160010190816109a99190611f6c565b5060408201518160020190816109bf9190611f6c565b50905050600181908060018154018082558091505060019003906000526020600020906003020160009091909190915060008201518160000160006101000a81548173ffffffffffffffffffffffffffffffffffffffff021916908373ffffffffffffffffffffffffffffffffffffffff1602179055506020820151816001019081610a4b9190611f6c565b506040820151816002019081610a619190611f6c565b50505050505050565b60606001805480602002602001604051908101604052809291908181526020016000905b82821015610c3a57838290600052602060002090600302016040518060600160405290816000820160009054906101000a900473ffffffffffffffffffffffffffffffffffffffff1673ffffffffffffffffffffffffffffffffffffffff1673ffffffffffffffffffffffffffffffffffffffff168152602001600182018054610b1790611cad565b80601f0160208091040260200160405190810160405280929190818152602001828054610b4390611cad565b8015610b905780601f10610b6557610100808354040283529160200191610b90565b820191906000526020600020905b815481529060010190602001808311610b7357829003601f168201915b50505050508152602001600282018054610ba990611cad565b80601f0160208091040260200160405190810160405280929190818152602001828054610bd590611cad565b8015610c225780601f10610bf757610100808354040283529160200191610c22565b820191906000526020600020905b815481529060010190602001808311610c0557829003601f168201915b50505050508152505081526020019060010190610a8e565b50505050905090565b610c4c826114aa565b610c8b576040517f08c379a0000000000000000000000000000000000000000000000000000000008152600401610c829061208a565b60405180910390fd5b60008060008473ffffffffffffffffffffffffffffffffffffffff1673ffffffffffffffffffffffffffffffffffffffff1681526020019081526020016000206040518060600160405290816000820160009054906101000a900473ffffffffffffffffffffffffffffffffffffffff1673ffffffffffffffffffffffffffffffffffffffff1673ffffffffffffffffffffffffffffffffffffffff168152602001600182018054610d3c90611cad565b80601f0160208091040260200160405190810160405280929190818152602001828054610d6890611cad565b8015610db55780601f10610d8a57610100808354040283529160200191610db5565b820191906000526020600020905b815481529060010190602001808311610d9857829003601f168201915b50505050508152602001600282018054610dce90611cad565b80601f0160208091040260200160405190810160405280929190818152602001828054610dfa90611cad565b8015610e475780601f10610e1c57610100808354040283529160200191610e47565b820191906000526020600020905b815481529060010190602001808311610e2a57829003601f168201915b5050505050815250509050818160400181905250806000808573ffffffffffffffffffffffffffffffffffffffff1673ffffffffffffffffffffffffffffffffffffffff16815260200190815260200160002060008201518160000160006101000a81548173ffffffffffffffffffffffffffffffffffffffff021916908373ffffffffffffffffffffffffffffffffffffffff1602179055506020820151816001019081610ef69190611f6c565b506040820151816002019081610f0c9190611f6c565b5090505060005b60018054905081101561104b578373ffffffffffffffffffffffffffffffffffffffff1660018281548110610f4b57610f4a6120aa565b5b906000526020600020906003020160000160009054906101000a900473ffffffffffffffffffffffffffffffffffffffff1673ffffffffffffffffffffffffffffffffffffffff1603611038578160018281548110610fad57610fac6120aa565b5b906000526020600020906003020160008201518160000160006101000a81548173ffffffffffffffffffffffffffffffffffffffff021916908373ffffffffffffffffffffffffffffffffffffffff16021790555060208201518160010190816110179190611f6c565b50604082015181600201908161102d9190611f6c565b50905050505061104e565b808061104390612108565b915050610f13565b50505b5050565b61105b826114aa565b61109a576040517f08c379a00000000000000000000000000000000000000000000000000000000081526004016110919061208a565b60405180910390fd5b6110a381611578565b156110e3576040517f08c379a00000000000000000000000000000000000000000000000000000000081526004016110da9061219c565b60405180910390fd5b60008060008473ffffffffffffffffffffffffffffffffffffffff1673ffffffffffffffffffffffffffffffffffffffff1681526020019081526020016000206040518060600160405290816000820160009054906101000a900473ffffffffffffffffffffffffffffffffffffffff1673ffffffffffffffffffffffffffffffffffffffff1673ffffffffffffffffffffffffffffffffffffffff16815260200160018201805461119490611cad565b80601f01602080910402602001604051908101604052809291908181526020018280546111c090611cad565b801561120d5780601f106111e25761010080835404028352916020019161120d565b820191906000526020600020905b8154815290600101906020018083116111f057829003601f168201915b5050505050815260200160028201805461122690611cad565b80601f016020809104026020016040519081016040528092919081815260200182805461125290611cad565b801561129f5780601f106112745761010080835404028352916020019161129f565b820191906000526020600020905b81548152906001019060200180831161128257829003601f168201915b5050505050815250509050818160200181905250806000808573ffffffffffffffffffffffffffffffffffffffff1673ffffffffffffffffffffffffffffffffffffffff16815260200190815260200160002060008201518160000160006101000a81548173ffffffffffffffffffffffffffffffffffffffff021916908373ffffffffffffffffffffffffffffffffffffffff160217905550602082015181600101908161134e9190611f6c565b5060408201518160020190816113649190611f6c565b5090505060005b6001805490508110156114a3578373ffffffffffffffffffffffffffffffffffffffff16600182815481106113a3576113a26120aa565b5b906000526020600020906003020160000160009054906101000a900473ffffffffffffffffffffffffffffffffffffffff1673ffffffffffffffffffffffffffffffffffffffff1603611490578160018281548110611405576114046120aa565b5b906000526020600020906003020160008201518160000160006101000a81548173ffffffffffffffffffffffffffffffffffffffff021916908373ffffffffffffffffffffffffffffffffffffffff160217905550602082015181600101908161146f9190611f6c565b5060408201518160020190816114859190611f6c565b5090505050506114a6565b808061149b90612108565b91505061136b565b50505b5050565b6000806000808473ffffffffffffffffffffffffffffffffffffffff1673ffffffffffffffffffffffffffffffffffffffff16815260200190815260200160002090508273ffffffffffffffffffffffffffffffffffffffff168160000160009054906101000a900473ffffffffffffffffffffffffffffffffffffffff1673ffffffffffffffffffffffffffffffffffffffff1614915050919050565b60008160405160200161155b91906121f8565b604051602081830303815290604052805190602001209050919050565b600080600090505b60018054905081101561166e5761159683611548565b61164c600183815481106115ad576115ac6120aa565b5b906000526020600020906003020160010180546115c990611cad565b80601f01602080910402602001604051908101604052809291908181526020018280546115f590611cad565b80156116425780601f1061161757610100808354040283529160200191611642565b820191906000526020600020905b81548152906001019060200180831161162557829003601f168201915b5050505050611548565b0361165b576001915050611674565b808061166690612108565b915050611580565b50600090505b919050565b6040518060600160405280600073ffffffffffffffffffffffffffffffffffffffff16815260200160608152602001606081525090565b6000604051905090565b600080fd5b600080fd5b600073ffffffffffffffffffffffffffffffffffffffff82169050919050565b60006116ef826116c4565b9050919050565b6116ff816116e4565b811461170a57600080fd5b50565b60008135905061171c816116f6565b92915050565b600060208284031215611738576117376116ba565b5b60006117468482850161170d565b91505092915050565b611758816116e4565b82525050565b600081519050919050565b600082825260208201905092915050565b60005b8381101561179857808201518184015260208101905061177d565b60008484015250505050565b6000601f19601f8301169050919050565b60006117c08261175e565b6117ca8185611769565b93506117da81856020860161177a565b6117e3816117a4565b840191505092915050565b6000606082019050611803600083018661174f565b818103602083015261181581856117b5565b9050818103604083015261182981846117b5565b9050949350505050565b61183c816116e4565b82525050565b600082825260208201905092915050565b600061185e8261175e565b6118688185611842565b935061187881856020860161177a565b611881816117a4565b840191505092915050565b60006060830160008301516118a46000860182611833565b50602083015184820360208601526118bc8282611853565b915050604083015184820360408601526118d68282611853565b9150508091505092915050565b600060208201905081810360008301526118fd818461188c565b905092915050565b600080fd5b600080fd5b7f4e487b7100000000000000000000000000000000000000000000000000000000600052604160045260246000fd5b611947826117a4565b810181811067ffffffffffffffff821117156119665761196561190f565b5b80604052505050565b60006119796116b0565b9050611985828261193e565b919050565b600067ffffffffffffffff8211156119a5576119a461190f565b5b6119ae826117a4565b9050602081019050919050565b82818337600083830152505050565b60006119dd6119d88461198a565b61196f565b9050828152602081018484840111156119f9576119f861190a565b5b611a048482856119bb565b509392505050565b600082601f830112611a2157611a20611905565b5b8135611a318482602086016119ca565b91505092915050565b600080600060608486031215611a5357611a526116ba565b5b6000611a618682870161170d565b935050602084013567ffffffffffffffff811115611a8257611a816116bf565b5b611a8e86828701611a0c565b925050604084013567ffffffffffffffff811115611aaf57611aae6116bf565b5b611abb86828701611a0c565b9150509250925092565b60006020820190508181036000830152611adf81846117b5565b905092915050565b600081519050919050565b600082825260208201905092915050565b6000819050602082019050919050565b6000606083016000830151611b2b6000860182611833565b5060208301518482036020860152611b438282611853565b91505060408301518482036040860152611b5d8282611853565b9150508091505092915050565b6000611b768383611b13565b905092915050565b6000602082019050919050565b6000611b9682611ae7565b611ba08185611af2565b935083602082028501611bb285611b03565b8060005b85811015611bee5784840389528151611bcf8582611b6a565b9450611bda83611b7e565b925060208a01995050600181019050611bb6565b50829750879550505050505092915050565b60006020820190508181036000830152611c1a8184611b8b565b905092915050565b60008060408385031215611c3957611c386116ba565b5b6000611c478582860161170d565b925050602083013567ffffffffffffffff811115611c6857611c676116bf565b5b611c7485828601611a0c565b9150509250929050565b7f4e487b7100000000000000000000000000000000000000000000000000000000600052602260045260246000fd5b60006002820490506001821680611cc557607f821691505b602082108103611cd857611cd7611c7e565b5b50919050565b7fe59cb0e59d80e5b7b2e7bb8fe8a2abe6b3a8e5868cefbc810000000000000000600082015250565b6000611d14601883611769565b9150611d1f82611cde565b602082019050919050565b60006020820190508181036000830152611d4381611d07565b9050919050565b7fe698b5e7a7b0e5b7b2e7bb8fe8a2abe6b3a8e5868cefbc810000000000000000600082015250565b6000611d80601883611769565b9150611d8b82611d4a565b602082019050919050565b60006020820190508181036000830152611daf81611d73565b9050919050565b60008190508160005260206000209050919050565b60006020601f8301049050919050565b600082821b905092915050565b600060088302611e187fffffffffffffffffffffffffffffffffffffffffffffffffffffffffffffffff82611ddb565b611e228683611ddb565b95508019841693508086168417925050509392505050565b6000819050919050565b6000819050919050565b6000611e69611e64611e5f84611e3a565b611e44565b611e3a565b9050919050565b6000819050919050565b611e8383611e4e565b611e97611e8f82611e70565b848454611de8565b825550505050565b600090565b611eac611e9f565b611eb7818484611e7a565b505050565b5b81811015611edb57611ed0600082611ea4565b600181019050611ebd565b5050565b601f821115611f2057611ef181611db6565b611efa84611dcb565b81016020851015611f09578190505b611f1d611f1585611dcb565b830182611ebc565b50505b505050565b600082821c905092915050565b6000611f4360001984600802611f25565b1980831691505092915050565b6000611f5c8383611f32565b9150826002028217905092915050565b611f758261175e565b67ffffffffffffffff811115611f8e57611f8d61190f565b5b611f988254611cad565b611fa3828285611edf565b600060209050601f831160018114611fd65760008415611fc4578287015190505b611fce8582611f50565b865550612036565b601f198416611fe486611db6565b60005b8281101561200c57848901518255600182019150602085019450602081019050611fe7565b868310156120295784890151612025601f891682611f32565b8355505b6001600288020188555050505b505050505050565b7fe59cb0e59d80e4b88de5ad98e59ca8efbc810000000000000000000000000000600082015250565b6000612074601283611769565b915061207f8261203e565b602082019050919050565b600060208201905081810360008301526120a381612067565b9050919050565b7f4e487b7100000000000000000000000000000000000000000000000000000000600052603260045260246000fd5b7f4e487b7100000000000000000000000000000000000000000000000000000000600052601160045260246000fd5b600061211382611e3a565b91507fffffffffffffffffffffffffffffffffffffffffffffffffffffffffffffffff8203612145576121446120d9565b5b600182019050919050565b7fe6ada4e698b5e7a7b0e5b7b2e7bb8fe5ad98e59ca8efbc810000000000000000600082015250565b6000612186601883611769565b915061219182612150565b602082019050919050565b600060208201905081810360008301526121b581612179565b9050919050565b600081905092915050565b60006121d28261175e565b6121dc81856121bc565b93506121ec81856020860161177a565b80840191505092915050565b600061220482846121c7565b91508190509291505056fea2646970667358221220069b0fc786d2e37ddb8f40289ddd24453fba944144f8e5038e90b18e6cd4252264736f6c63430008120033",
  "immutableReferences": {},
  "source": "//SPDX-License-Identifier:MIT\r\npragma solidity >=0.8.0 <0.9.0;\r\n\r\ncontract UserManager{\r\n    //1、存放用户的基本信息，声明一个结构体\r\n    struct User{\r\n        address owner; //用户的唯一区块链上的账号地址\r\n        string name;//用户的昵称，唯一值\r\n        string pwd;//用户的密码\r\n    }\r\n    //2、根据账号返回用户的个人信息，声明一个映射\r\n    mapping(address=>User) private myUser;\r\n    //3、已注册的用户集合，声明一个数组\r\n    User[] private registeredUsers;\r\n    \r\n    //4、声明函数，判断账号是否已经存在\r\n    function isExistsAddress(address addr) private view returns(bool){\r\n        //从映射中通过传入的参数地址返回用户\r\n        User storage info = myUser[addr];\r\n        return (info.owner == addr);\r\n    }\r\n\r\n    //5、声明函数，实现字符串的转换，因为solidity不支持字符串直接比较，要转成bytes32\r\n    function convertStr(string memory str) private pure returns(bytes32){\r\n        return keccak256(abi.encodePacked(str));\r\n    }\r\n\r\n    //6、声明函数，判断昵称是否是唯一值\r\n    function isExistsName(string memory s) private view returns(bool){\r\n        //遍历已注册数组，判断参数传入的用户名是否和已注册的昵称相同\r\n        for(uint i = 0;i<registeredUsers.length;i++){\r\n            //registeredUsers[i].name 数组下标所在的用户的昵称\r\n            //s是传入进来的用户昵称\r\n            //两个昵称进行比较，字符串先转换\r\n            if(convertStr(registeredUsers[i].name)==convertStr(s)){\r\n                return true;//昵称已经被注册\r\n            }\r\n        }\r\n        return false;//for循环结束未返回，则肯定是传入的昵称不存在\r\n    }\r\n\r\n    //7、实现用户注册\r\n    function register(address addr,string memory name,string memory pwd) public{\r\n         //7.1 先判断地址是否已经被注册\r\n         require(!isExistsAddress(addr),unicode\"地址已经被注册！\");\r\n         //7.2 判断昵称是否已经被注册\r\n         require(!isExistsName(name),unicode\"昵称已经被注册！\");\r\n         //7.3 开始注册，首先通过参数得到一个新的用户对象\r\n         User memory user = User(addr,name,pwd);\r\n         //然后将对象存入到映射以及数组中\r\n         myUser[addr] = user;\r\n         registeredUsers.push(user); //用户添加到已注册的列表\r\n    }\r\n\r\n    //8、用户登录\r\n    function login(address addr,\r\n                   string memory name,\r\n                   string memory pwd) public view returns(string memory){\r\n        //8.1 判断账号是否存在\r\n        if(!isExistsAddress(addr)){\r\n            return unicode\"账户不存在\";\r\n        }\r\n        //8.2 判断昵称和密码是否正确\r\n        //通过账号获得用户对象\r\n        User memory info = myUser[addr];\r\n        //比较用户对象中的昵称和传入的参数昵称\r\n        if(convertStr(info.name)!=convertStr(name)){\r\n            return unicode\"昵称出错！\";\r\n        }\r\n        if(convertStr(info.pwd)!=convertStr(pwd)){\r\n            return unicode\"密码出错！\";\r\n        }\r\n        return unicode\"登录成功！\";  \r\n    }\r\n     \r\n    //9、修改密码\r\n    function updatePwd(address addr,string memory newPwd) public{\r\n        require(isExistsAddress(addr),unicode\"地址不存在！\");\r\n        User memory info = myUser[addr];//通过地址得到对象\r\n        info.pwd = newPwd;//更新对象中的密码\r\n        //将映射中的当前用户对象更新\r\n        myUser[addr] = info;\r\n        //将注册列表的当前用户去更新\r\n        for(uint i = 0;i<registeredUsers.length;i++){\r\n            //如果参数地址等于注册列表中下标为i的用户地址\r\n            if(registeredUsers[i].owner == addr){\r\n                //更新用户\r\n                registeredUsers[i] = info;\r\n                return;\r\n            }\r\n        }\r\n    } \r\n\r\n     //10、修改昵称\r\n    function updateName(address addr,string memory newName) public{\r\n        require(isExistsAddress(addr),unicode\"地址不存在！\");\r\n        require(!isExistsName(newName),unicode\"此昵称已经存在！\");\r\n        User memory info = myUser[addr];//通过地址得到对象\r\n        info.name = newName;//更新对象中的昵称\r\n        //将映射中的当前用户对象更新\r\n        myUser[addr] = info;\r\n        //将注册列表的当前用户去更新\r\n        for(uint i = 0;i<registeredUsers.length;i++){\r\n            //如果参数地址等于注册列表中下标为i的用户地址\r\n            if(registeredUsers[i].owner == addr){\r\n                //更新用户\r\n                registeredUsers[i] = info;\r\n                return;\r\n            }\r\n        }\r\n    }\r\n\r\n    //11、根据账号返回用户信息对象\r\n    function getUser(address addr) public view returns(User memory){\r\n        return myUser[addr];\r\n    } \r\n    //12、根据账号返回用户详细信息\r\n    function getUserInfo(address addr) public view \r\n                                       returns(address,\r\n                                               string memory,\r\n                                               string memory){\r\n         User memory info = myUser[addr];\r\n         return (info.owner,info.name,info.pwd);\r\n    }\r\n    \r\n    //12、返回已注册的用户列表\r\n    function getUserList() view public returns(User[] memory){\r\n        return registeredUsers;\r\n    }\r\n}",
  "sourcePath": "D:\\源代码\\Photography\\contracts\\User.sol",
  "compiler": {
    "name": "solc",
    "version": "0.8.18+commit.87f61d96.Emscripten.clang"
  },
  "schemaVersion": "3.4.16",
  "updatedAt": "2026-06-30T11:45:16.051Z",
  "devdoc": {
    "kind": "dev",
    "methods": {},
    "version": 1
  },
  "userdoc": {
    "kind": "user",
    "methods": {},
    "version": 1
  }
}