{
  "contractName": "Adoption",
  "abi": [
    {
      "inputs": [],
      "name": "getAdopters",
      "outputs": [
        {
          "internalType": "address[16]",
          "name": "",
          "type": "address[16]"
        }
      ],
      "stateMutability": "view",
      "type": "function",
      "constant": true
    },
    {
      "inputs": [
        {
          "internalType": "uint256",
          "name": "petId",
          "type": "uint256"
        }
      ],
      "name": "adopt",
      "outputs": [],
      "stateMutability": "nonpayable",
      "type": "function"
    }
  ],
  "bytecode": "0x608060405234801561001057600080fd5b506105a9806100206000396000f3fe608060405234801561001057600080fd5b50600436106100365760003560e01c80633de4eb171461003b5780638588b2c514610059575b600080fd5b610043610075565b6040516100509190610360565b60405180910390f35b610073600480360381019061006e91906103b7565b6100f6565b005b61007d610260565b60006010806020026040519081016040528092919082601080156100ec576020028201915b8160009054906101000a900473ffffffffffffffffffffffffffffffffffffffff1673ffffffffffffffffffffffffffffffffffffffff16815260200190600101908083116100a2575b5050505050905090565b600081101580156101075750601081105b610146576040517f08c379a000000000000000000000000000000000000000000000000000000000815260040161013d90610441565b60405180910390fd5b60005b6010811015610208573373ffffffffffffffffffffffffffffffffffffffff166000826010811061017d5761017c610461565b5b0160009054906101000a900473ffffffffffffffffffffffffffffffffffffffff1673ffffffffffffffffffffffffffffffffffffffff16036101f5576040517f08c379a00000000000000000000000000000000000000000000000000000000081526004016101ec906104dc565b60405180910390fd5b80806102009061052b565b915050610149565b50336000826010811061021e5761021d610461565b5b0160006101000a81548173ffffffffffffffffffffffffffffffffffffffff021916908373ffffffffffffffffffffffffffffffffffffffff16021790555050565b604051806102000160405280601090602082028036833780820191505090505090565b600060109050919050565b600081905092915050565b6000819050919050565b600073ffffffffffffffffffffffffffffffffffffffff82169050919050565b60006102ce826102a3565b9050919050565b6102de816102c3565b82525050565b60006102f083836102d5565b60208301905092915050565b6000602082019050919050565b61031281610283565b61031c818461028e565b925061032782610299565b8060005b8381101561035857815161033f87826102e4565b965061034a836102fc565b92505060018101905061032b565b505050505050565b6000610200820190506103766000830184610309565b92915050565b600080fd5b6000819050919050565b61039481610381565b811461039f57600080fd5b50565b6000813590506103b18161038b565b92915050565b6000602082840312156103cd576103cc61037c565b5b60006103db848285016103a2565b91505092915050565b600082825260208201905092915050565b7fe5aea0e789a9e4b88de5ad98e59ca80000000000000000000000000000000000600082015250565b600061042b600f836103e4565b9150610436826103f5565b602082019050919050565b6000602082019050818103600083015261045a8161041e565b9050919050565b7f4e487b7100000000000000000000000000000000000000000000000000000000600052603260045260246000fd5b7fe4bda0e5b7b2e7bb8fe9a286e585bbe8bf87e5aea0e789a9e4ba86efbc810000600082015250565b60006104c6601e836103e4565b91506104d182610490565b602082019050919050565b600060208201905081810360008301526104f5816104b9565b9050919050565b7f4e487b7100000000000000000000000000000000000000000000000000000000600052601160045260246000fd5b600061053682610381565b91507fffffffffffffffffffffffffffffffffffffffffffffffffffffffffffffffff8203610568576105676104fc565b5b60018201905091905056fea264697066735822122060d83e7350f390cb0241ac9d93de8907075dd6c132b202ee135606edba0511a564736f6c63430008120033",
  "immutableReferences": {},
  "source": "//SPDX-License-Identifier:MIT\r\npragma solidity >=0.8.0 <0.9.0;\r\n\r\ncontract Adoption{\r\n    //存储宠物领养人的数组\r\n    address[16] adopters;\r\n    //返回所有领养人\r\n    function getAdopters() public view returns(address[16] memory){\r\n        return adopters;\r\n    }\r\n\r\n    //宠物领养事件\r\n    //event adoptEvent(address,uint);\r\n    //领养宠物\r\n    function adopt(uint petId) public{\r\n        require(petId>=0 && petId<adopters.length,unicode\"宠物不存在\");\r\n        //一个地址只能领养一只宠物\r\n        for(uint i=0;i<adopters.length;i++){\r\n            //msg.sender是表示当前调用函数的账号地址\r\n            //如果当前地址不等于领养人数组的任意一个地址\r\n            //就说明当前地址尚未领养宠物\r\n            require(adopters[i]!=msg.sender,unicode\"你已经领养过宠物了！\");\r\n        }\r\n        //将当前账号保存在对应的宠物编号所在的数组位置\r\n        adopters[petId] = msg.sender;\r\n        //触发领养事件，保存领养人和领养ID\r\n        //emit adoptEvent(msg.sender, petId);\r\n    }\r\n}",
  "sourcePath": "D:\\源代码\\Photography\\contracts\\Adopt.sol",
  "compiler": {
    "name": "solc",
    "version": "0.8.18+commit.87f61d96.Emscripten.clang"
  },
  "schemaVersion": "3.4.16",
  "updatedAt": "2026-07-04T10:03:38.750Z",
  "networkType": "ethereum",
  "devdoc": {
    "kind": "dev",
    "methods": {},
    "version": 1
  },
  "userdoc": {
    "kind": "user",
    "methods": {},
    "version": 1
  }
}